{
  "contractName": "election",
  "abi": [
    {
      "constant": true,
      "inputs": [
        {
          "name": "",
          "type": "address"
        }
      ],
      "name": "electors",
      "outputs": [
        {
          "name": "name",
          "type": "bytes32"
        },
        {
          "name": "voted",
          "type": "bool"
        },
        {
          "name": "province",
          "type": "uint256"
        },
        {
          "name": "city",
          "type": "uint256"
        },
        {
          "name": "region",
          "type": "uint256"
        },
        {
          "name": "voteCount",
          "type": "uint256"
        },
        {
          "name": "power",
          "type": "uint256"
        }
      ],
      "payable": false,
      "stateMutability": "view",
      "type": "function",
      "signature": "0x067efedf"
    },
    {
      "constant": true,
      "inputs": [],
      "name": "currentState",
      "outputs": [
        {
          "name": "",
          "type": "uint256"
        }
      ],
      "payable": false,
      "stateMutability": "view",
      "type": "function",
      "signature": "0x0c3f6acf"
    },
    {
      "constant": true,
      "inputs": [],
      "name": "maxRegionNum",
      "outputs": [
        {
          "name": "",
          "type": "uint256"
        }
      ],
      "payable": false,
      "stateMutability": "view",
      "type": "function",
      "signature": "0x24f735bc"
    },
    {
      "constant": true,
      "inputs": [],
      "name": "chairperson",
      "outputs": [
        {
          "name": "",
          "type": "address"
        }
      ],
      "payable": false,
      "stateMutability": "view",
      "type": "function",
      "signature": "0x2e4176cf"
    },
    {
      "constant": true,
      "inputs": [
        {
          "name": "",
          "type": "bytes32"
        }
      ],
      "name": "findPerson",
      "outputs": [
        {
          "name": "",
          "type": "address"
        }
      ],
      "payable": false,
      "stateMutability": "view",
      "type": "function",
      "signature": "0x59834f07"
    },
    {
      "constant": true,
      "inputs": [
        {
          "name": "",
          "type": "uint256"
        }
      ],
      "name": "validAddr",
      "outputs": [
        {
          "name": "",
          "type": "address"
        }
      ],
      "payable": false,
      "stateMutability": "view",
      "type": "function",
      "signature": "0x69757205"
    },
    {
      "constant": true,
      "inputs": [],
      "name": "maxProvinceNum",
      "outputs": [
        {
          "name": "",
          "type": "uint256"
        }
      ],
      "payable": false,
      "stateMutability": "view",
      "type": "function",
      "signature": "0xa4bd2204"
    },
    {
      "constant": true,
      "inputs": [],
      "name": "maxCityNum",
      "outputs": [
        {
          "name": "",
          "type": "uint256"
        }
      ],
      "payable": false,
      "stateMutability": "view",
      "type": "function",
      "signature": "0xe79d9643"
    },
    {
      "inputs": [],
      "payable": false,
      "stateMutability": "nonpayable",
      "type": "constructor",
      "signature": "constructor"
    },
    {
      "constant": false,
      "inputs": [
        {
          "name": "addresses",
          "type": "address[]"
        },
        {
          "name": "names",
          "type": "bytes32[]"
        },
        {
          "name": "provinces",
          "type": "uint256[]"
        },
        {
          "name": "cities",
          "type": "uint256[]"
        },
        {
          "name": "regions",
          "type": "uint256[]"
        }
      ],
      "name": "addElectors",
      "outputs": [],
      "payable": false,
      "stateMutability": "nonpayable",
      "type": "function",
      "signature": "0x84aee30b"
    },
    {
      "constant": false,
      "inputs": [
        {
          "name": "addresses",
          "type": "address"
        },
        {
          "name": "names",
          "type": "bytes32"
        },
        {
          "name": "provinces",
          "type": "uint256"
        },
        {
          "name": "cities",
          "type": "uint256"
        },
        {
          "name": "regions",
          "type": "uint256"
        }
      ],
      "name": "addElector",
      "outputs": [],
      "payable": false,
      "stateMutability": "nonpayable",
      "type": "function",
      "signature": "0x48864a1c"
    },
    {
      "constant": false,
      "inputs": [
        {
          "name": "toVoteName",
          "type": "bytes32"
        }
      ],
      "name": "voteTo",
      "outputs": [],
      "payable": false,
      "stateMutability": "nonpayable",
      "type": "function",
      "signature": "0xb1b51f0c"
    },
    {
      "constant": false,
      "inputs": [],
      "name": "finishState",
      "outputs": [],
      "payable": false,
      "stateMutability": "nonpayable",
      "type": "function",
      "signature": "0xbbf838f7"
    }
  ],
  "bytecode": "0x608060405234801561001057600080fd5b506000808190555033600460006101000a81548173ffffffffffffffffffffffffffffffffffffffff021916908373ffffffffffffffffffffffffffffffffffffffff160217905550600060018190555060006002819055506000600381905550612093806100806000396000f3006080604052600436106100ba576000357c0100000000000000000000000000000000000000000000000000000000900463ffffffff168063067efedf146100bf5780630c3f6acf1461014c57806324f735bc146101775780632e4176cf146101a257806348864a1c146101f957806359834f071461026857806369757205146102d957806384aee30b14610346578063a4bd2204146104b8578063b1b51f0c146104e3578063bbf838f714610514578063e79d96431461052b575b600080fd5b3480156100cb57600080fd5b50610100600480360381019080803573ffffffffffffffffffffffffffffffffffffffff169060200190929190505050610556565b6040518088600019166000191681526020018715151515815260200186815260200185815260200184815260200183815260200182815260200197505050505050505060405180910390f35b34801561015857600080fd5b506101616105a5565b6040518082815260200191505060405180910390f35b34801561018357600080fd5b5061018c6105ab565b6040518082815260200191505060405180910390f35b3480156101ae57600080fd5b506101b76105b1565b604051808273ffffffffffffffffffffffffffffffffffffffff1673ffffffffffffffffffffffffffffffffffffffff16815260200191505060405180910390f35b34801561020557600080fd5b50610266600480360381019080803573ffffffffffffffffffffffffffffffffffffffff16906020019092919080356000191690602001909291908035906020019092919080359060200190929190803590602001909291905050506105d7565b005b34801561027457600080fd5b5061029760048036038101908080356000191690602001909291905050506109ca565b604051808273ffffffffffffffffffffffffffffffffffffffff1673ffffffffffffffffffffffffffffffffffffffff16815260200191505060405180910390f35b3480156102e557600080fd5b50610304600480360381019080803590602001909291905050506109fd565b604051808273ffffffffffffffffffffffffffffffffffffffff1673ffffffffffffffffffffffffffffffffffffffff16815260200191505060405180910390f35b34801561035257600080fd5b506104b66004803603810190808035906020019082018035906020019080806020026020016040519081016040528093929190818152602001838360200280828437820191505050505050919291929080359060200190820180359060200190808060200260200160405190810160405280939291908181526020018383602002808284378201915050505050509192919290803590602001908201803590602001908080602002602001604051908101604052809392919081815260200183836020028082843782019150505050505091929192908035906020019082018035906020019080806020026020016040519081016040528093929190818152602001838360200280828437820191505050505050919291929080359060200190820180359060200190808060200260200160405190810160405280939291908181526020018383602002808284378201915050505050509192919290505050610a3b565b005b3480156104c457600080fd5b506104cd611018565b6040518082815260200191505060405180910390f35b3480156104ef57600080fd5b50610512600480360381019080803560001916906020019092919050505061101e565b005b34801561052057600080fd5b5061052961145b565b005b34801561053757600080fd5b50610540611fe4565b6040518082815260200191505060405180910390f35b60066020528060005260406000206000915090508060000154908060010160009054906101000a900460ff16908060020154908060030154908060040154908060050154908060060154905087565b60005481565b60035481565b600460009054906101000a900473ffffffffffffffffffffffffffffffffffffffff1681565b600460009054906101000a900473ffffffffffffffffffffffffffffffffffffffff1673ffffffffffffffffffffffffffffffffffffffff163373ffffffffffffffffffffffffffffffffffffffff161415156106c2576040517f08c379a00000000000000000000000000000000000000000000000000000000081526004018080602001828103825260218152602001807f6f6e6c79206368616972706572736f6e2063616e2061646420656c6563746f7281526020017f730000000000000000000000000000000000000000000000000000000000000081525060400191505060405180910390fd5b83600660008773ffffffffffffffffffffffffffffffffffffffff1673ffffffffffffffffffffffffffffffffffffffff16815260200190815260200160002060000181600019169055506000600660008773ffffffffffffffffffffffffffffffffffffffff1673ffffffffffffffffffffffffffffffffffffffff16815260200190815260200160002060010160006101000a81548160ff02191690831515021790555082600660008773ffffffffffffffffffffffffffffffffffffffff1673ffffffffffffffffffffffffffffffffffffffff1681526020019081526020016000206002018190555081600660008773ffffffffffffffffffffffffffffffffffffffff1673ffffffffffffffffffffffffffffffffffffffff1681526020019081526020016000206003018190555080600660008773ffffffffffffffffffffffffffffffffffffffff1673ffffffffffffffffffffffffffffffffffffffff168152602001908152602001600020600401819055506000600660008773ffffffffffffffffffffffffffffffffffffffff1673ffffffffffffffffffffffffffffffffffffffff168152602001908152602001600020600501819055506000600660008773ffffffffffffffffffffffffffffffffffffffff1673ffffffffffffffffffffffffffffffffffffffff168152602001908152602001600020600601819055508460076000866000191660001916815260200190815260200160002060006101000a81548173ffffffffffffffffffffffffffffffffffffffff021916908373ffffffffffffffffffffffffffffffffffffffff16021790555080600354101561093957806003819055505b81600254101561094b57816002819055505b82600154101561095d57826001819055505b60058590806001815401808255809150509060018203906000526020600020016000909192909190916101000a81548173ffffffffffffffffffffffffffffffffffffffff021916908373ffffffffffffffffffffffffffffffffffffffff160217905550505050505050565b60076020528060005260406000206000915054906101000a900473ffffffffffffffffffffffffffffffffffffffff1681565b600581815481101515610a0c57fe5b906000526020600020016000915054906101000a900473ffffffffffffffffffffffffffffffffffffffff1681565b6000600460009054906101000a900473ffffffffffffffffffffffffffffffffffffffff1673ffffffffffffffffffffffffffffffffffffffff163373ffffffffffffffffffffffffffffffffffffffff16141515610b28576040517f08c379a00000000000000000000000000000000000000000000000000000000081526004018080602001828103825260218152602001807f6f6e6c79206368616972706572736f6e2063616e2061646420656c6563746f7281526020017f730000000000000000000000000000000000000000000000000000000000000081525060400191505060405180910390fd5b600090505b8551811015611010578481815181101515610b4457fe5b90602001906020020151600660008884815181101515610b6057fe5b9060200190602002015173ffffffffffffffffffffffffffffffffffffffff1673ffffffffffffffffffffffffffffffffffffffff16815260200190815260200160002060000181600019169055506000600660008884815181101515610bc357fe5b9060200190602002015173ffffffffffffffffffffffffffffffffffffffff1673ffffffffffffffffffffffffffffffffffffffff16815260200190815260200160002060010160006101000a81548160ff0219169083151502179055508381815181101515610c2f57fe5b90602001906020020151600660008884815181101515610c4b57fe5b9060200190602002015173ffffffffffffffffffffffffffffffffffffffff1673ffffffffffffffffffffffffffffffffffffffff168152602001908152602001600020600201819055508281815181101515610ca457fe5b90602001906020020151600660008884815181101515610cc057fe5b9060200190602002015173ffffffffffffffffffffffffffffffffffffffff1673ffffffffffffffffffffffffffffffffffffffff168152602001908152602001600020600301819055508181815181101515610d1957fe5b90602001906020020151600660008884815181101515610d3557fe5b9060200190602002015173ffffffffffffffffffffffffffffffffffffffff1673ffffffffffffffffffffffffffffffffffffffff168152602001908152602001600020600401819055506000600660008884815181101515610d9457fe5b9060200190602002015173ffffffffffffffffffffffffffffffffffffffff1673ffffffffffffffffffffffffffffffffffffffff168152602001908152602001600020600501819055506000600660008884815181101515610df357fe5b9060200190602002015173ffffffffffffffffffffffffffffffffffffffff1673ffffffffffffffffffffffffffffffffffffffff168152602001908152602001600020600601819055508581815181101515610e4c57fe5b90602001906020020151600760008784815181101515610e6857fe5b906020019060200201516000191660001916815260200190815260200160002060006101000a81548173ffffffffffffffffffffffffffffffffffffffff021916908373ffffffffffffffffffffffffffffffffffffffff1602179055508181815181101515610ed457fe5b906020019060200201516003541015610f06578181815181101515610ef557fe5b906020019060200201516003819055505b8281815181101515610f1457fe5b906020019060200201516002541015610f46578281815181101515610f3557fe5b906020019060200201516002819055505b8381815181101515610f5457fe5b906020019060200201516001541015610f86578381815181101515610f7557fe5b906020019060200201516001819055505b60058682815181101515610f9657fe5b9060200190602002015190806001815401808255809150509060018203906000526020600020016000909192909190916101000a81548173ffffffffffffffffffffffffffffffffffffffff021916908373ffffffffffffffffffffffffffffffffffffffff160217905550508080600101915050610b2d565b505050505050565b60015481565b600080600660003373ffffffffffffffffffffffffffffffffffffffff1673ffffffffffffffffffffffffffffffffffffffff16815260200190815260200160002091508160010160009054906101000a900460ff161515156110e9576040517f08c379a000000000000000000000000000000000000000000000000000000000815260040180806020018281038252601b8152602001807f7468697320656c6563746f7220616c726561647920766f7465642e000000000081525060200191505060405180910390fd5b60005482600601541015151561118d576040517f08c379a00000000000000000000000000000000000000000000000000000000081526004018080602001828103825260258152602001807f7468697320656c6563746f7220646f206e6f74206861766520656e6f7567682081526020017f706f77657200000000000000000000000000000000000000000000000000000081525060400191505060405180910390fd5b6006600060076000866000191660001916815260200190815260200160002060009054906101000a900473ffffffffffffffffffffffffffffffffffffffff1673ffffffffffffffffffffffffffffffffffffffff1673ffffffffffffffffffffffffffffffffffffffff16815260200190815260200160002090506000805414156112bd57806004015482600401541415156112b8576040517f08c379a00000000000000000000000000000000000000000000000000000000081526004018080602001828103825260358152602001807f656c6563746f7220616e6420746f20766f746520706572736f6e206d7573742081526020017f626520696e207468652073616d6520726567696f6e000000000000000000000081525060400191505060405180910390fd5b611425565b60016000541415611372578060030154826003015414151561136d576040517f08c379a00000000000000000000000000000000000000000000000000000000081526004018080602001828103825260338152602001807f656c6563746f7220616e6420746f20766f746520706572736f6e206d7573742081526020017f626520696e207468652073616d6520636974790000000000000000000000000081525060400191505060405180910390fd5b611424565b600260005414156114235780600201548260020154141515611422576040517f08c379a00000000000000000000000000000000000000000000000000000000081526004018080602001828103825260378152602001807f656c6563746f7220616e6420746f20766f746520706572736f6e206d7573742081526020017f626520696e207468652073616d652070726f76696e636500000000000000000081525060400191505060405180910390fd5b5b5b5b60018260010160006101000a81548160ff0219169083151502179055508060050160008154809291906001019190505550505050565b6000806000806000806000806000806000806000600460009054906101000a900473ffffffffffffffffffffffffffffffffffffffff1673ffffffffffffffffffffffffffffffffffffffff163373ffffffffffffffffffffffffffffffffffffffff1614151561155a576040517f08c379a00000000000000000000000000000000000000000000000000000000081526004018080602001828103825260218152602001807f6f6e6c79206368616972706572736f6e2063616e2066696e697368207374617481526020017f650000000000000000000000000000000000000000000000000000000000000081525060400191505060405180910390fd5b6000805414156117fe576003548d816115739190611fea565b506003548c816115839190612016565b5060009a505b6003548b10156115be5760008d8c8154811015156115a357fe5b90600052602060002001819055508a806001019b5050611589565b60009a505b6005805490508b1015611753576006600060058d8154811015156115e357fe5b9060005260206000200160009054906101000a900473ffffffffffffffffffffffffffffffffffffffff1673ffffffffffffffffffffffffffffffffffffffff1673ffffffffffffffffffffffffffffffffffffffff168152602001908152602001600020995060008a600601541015801561168157508c60018b600401540381548110151561166f57fe5b90600052602060002001548a60050154115b156117465789600501548d60018c60040154038154811015156116a057fe5b906000526020600020018190555060058b8154811015156116bd57fe5b9060005260206000200160009054906101000a900473ffffffffffffffffffffffffffffffffffffffff168c60018c60040154038154811015156116fd57fe5b9060005260206000200160006101000a81548173ffffffffffffffffffffffffffffffffffffffff021916908373ffffffffffffffffffffffffffffffffffffffff1602179055505b8a806001019b50506115c3565b60009a505b8b805490508b10156117f1576001600660008e8e81548110151561177857fe5b9060005260206000200160009054906101000a900473ffffffffffffffffffffffffffffffffffffffff1673ffffffffffffffffffffffffffffffffffffffff1673ffffffffffffffffffffffffffffffffffffffff168152602001908152602001600020600601819055508a806001019b5050611758565b6001600081905550611ea1565b60016000541415611aa35760025489816118189190611fea565b5060025488816118289190612016565b5060009a505b6002548b1015611863576000898c81548110151561184857fe5b90600052602060002001819055508a806001019b505061182e565b60009a505b6005805490508b10156119f8576006600060058d81548110151561188857fe5b9060005260206000200160009054906101000a900473ffffffffffffffffffffffffffffffffffffffff1673ffffffffffffffffffffffffffffffffffffffff1673ffffffffffffffffffffffffffffffffffffffff16815260200190815260200160002096506001876006015410158015611926575088600188600301540381548110151561191457fe5b90600052602060002001548760050154115b156119eb57866005015489600189600301540381548110151561194557fe5b906000526020600020018190555060058b81548110151561196257fe5b9060005260206000200160009054906101000a900473ffffffffffffffffffffffffffffffffffffffff168860018960030154038154811015156119a257fe5b9060005260206000200160006101000a81548173ffffffffffffffffffffffffffffffffffffffff021916908373ffffffffffffffffffffffffffffffffffffffff1602179055505b8a806001019b5050611868565b60009a505b87805490508b1015611a96576002600660008a8e815481101515611a1d57fe5b9060005260206000200160009054906101000a900473ffffffffffffffffffffffffffffffffffffffff1673ffffffffffffffffffffffffffffffffffffffff1673ffffffffffffffffffffffffffffffffffffffff168152602001908152602001600020600601819055508a806001019b50506119fd565b6002600081905550611ea0565b60026000541415611d48576001548681611abd9190611fea565b506001548581611acd9190612016565b5060009a505b6001548b1015611b08576000868c815481101515611aed57fe5b90600052602060002001819055508a806001019b5050611ad3565b60009a505b6005805490508b1015611c9d576006600060058d815481101515611b2d57fe5b9060005260206000200160009054906101000a900473ffffffffffffffffffffffffffffffffffffffff1673ffffffffffffffffffffffffffffffffffffffff1673ffffffffffffffffffffffffffffffffffffffff16815260200190815260200160002093506002846006015410158015611bcb5750856001856002015403815481101515611bb957fe5b90600052602060002001548460050154115b15611c90578360050154866001866002015403815481101515611bea57fe5b906000526020600020018190555060058b815481101515611c0757fe5b9060005260206000200160009054906101000a900473ffffffffffffffffffffffffffffffffffffffff16856001866002015403815481101515611c4757fe5b9060005260206000200160006101000a81548173ffffffffffffffffffffffffffffffffffffffff021916908373ffffffffffffffffffffffffffffffffffffffff1602179055505b8a806001019b5050611b0d565b60009a505b84805490508b1015611d3b57600360066000878e815481101515611cc257fe5b9060005260206000200160009054906101000a900473ffffffffffffffffffffffffffffffffffffffff1673ffffffffffffffffffffffffffffffffffffffff1673ffffffffffffffffffffffffffffffffffffffff168152602001908152602001600020600601819055508a806001019b5050611ca2565b6003600081905550611e9f565b60036000541415611e9e5760009a505b6005805490508b1015611e4d576006600060058d815481101515611d7857fe5b9060005260206000200160009054906101000a900473ffffffffffffffffffffffffffffffffffffffff1673ffffffffffffffffffffffffffffffffffffffff1673ffffffffffffffffffffffffffffffffffffffff16815260200190815260200160002090506003816006015410158015611df75750828160050154115b15611e40578060050154925060058b815481101515611e1257fe5b9060005260206000200160009054906101000a900473ffffffffffffffffffffffffffffffffffffffff1691505b8a806001019b5050611d58565b6004600660008473ffffffffffffffffffffffffffffffffffffffff1673ffffffffffffffffffffffffffffffffffffffff1681526020019081526020016000206006018190555060046000819055505b5b5b5b60009a505b6005805490508b1015611fd55760006006600060058e815481101515611ec857fe5b9060005260206000200160009054906101000a900473ffffffffffffffffffffffffffffffffffffffff1673ffffffffffffffffffffffffffffffffffffffff1673ffffffffffffffffffffffffffffffffffffffff1681526020019081526020016000206005018190555060006006600060058e815481101515611f4957fe5b9060005260206000200160009054906101000a900473ffffffffffffffffffffffffffffffffffffffff1673ffffffffffffffffffffffffffffffffffffffff1673ffffffffffffffffffffffffffffffffffffffff16815260200190815260200160002060010160006101000a81548160ff0219169083151502179055508a806001019b5050611ea6565b50505050505050505050505050565b60025481565b815481835581811115612011578183600052602060002091820191016120109190612042565b5b505050565b81548183558181111561203d5781836000526020600020918201910161203c9190612042565b5b505050565b61206491905b80821115612060576000816000905550600101612048565b5090565b905600a165627a7a723058201d857ff6551115b612c560c66ab31077a6dc1c2ae9fe6f29311632dde0e6b7090029",
  "source": "pragma solidity ^0.4.22;\r\ncontract election {\r\n\tstruct elector {\r\n\t\tbytes32 name;\r\n\t\tbool voted;\r\n\t\tuint province;\r\n\t\tuint city;\r\n\t\tuint region;\r\n\t\tuint voteCount;\r\n\t\tuint power;\t\t//0为普通民众，1为市级代表，2为省级代表，3为国家代表，4为国家主席\r\n\t}\r\n\tuint public currentState;\t//0为选举市级代表，1为选举省级代表，2为选举国家代表，3为选举国家主席\r\n\tuint public maxProvinceNum;\r\n\tuint public maxCityNum;\r\n\tuint public maxRegionNum;\r\n\taddress public chairperson;\r\n\taddress[] public validAddr;\r\n\tmapping (address => elector) public electors;\r\n\tmapping (bytes32 => address) public findPerson;\r\n\tconstructor() public{\r\n\t\tcurrentState = 0;\r\n\t\tchairperson = msg.sender;\r\n\t\tmaxProvinceNum = 0;\r\n\t\tmaxCityNum = 0;\r\n\t\tmaxRegionNum = 0;\r\n\t}\r\n\r\n\tfunction addElectors(address[] memory addresses, bytes32[] memory names, uint[] memory provinces, uint[] memory cities, uint[] memory regions) public {\r\n\t\trequire (msg.sender == chairperson, \"only chairperson can add electors\");\r\n\t\tfor(uint i = 0; i < addresses.length; i++){\r\n\t\t\telectors[addresses[i]].name = names[i];\r\n\t\t\telectors[addresses[i]].voted = false;\r\n\t\t\telectors[addresses[i]].province = provinces[i];\r\n\t\t\telectors[addresses[i]].city = cities[i];\r\n\t\t\telectors[addresses[i]].region = regions[i];\r\n\t\t\telectors[addresses[i]].voteCount = 0;\r\n\t\t\telectors[addresses[i]].power = 0;\r\n\t\t\tfindPerson[names[i]] = addresses[i];\r\n\t\t\tif(maxRegionNum < regions[i]){\r\n\t\t\t\tmaxRegionNum = regions[i];\r\n\t\t\t}\r\n\t\t\tif(maxCityNum < cities[i]){\r\n\t\t\t\tmaxCityNum = cities[i];\r\n\t\t\t}\r\n\t\t\tif(maxProvinceNum < provinces[i]){\r\n\t\t\t\tmaxProvinceNum = provinces[i];\r\n\t\t\t}\r\n\t\t\tvalidAddr.push(addresses[i]);\r\n\t\t}\r\n\t}\r\n\r\n\tfunction addElector(address addresses, bytes32 names, uint provinces, uint cities, uint regions) public {\r\n\t\trequire (msg.sender == chairperson, \"only chairperson can add electors\");\r\n\t\telectors[addresses].name = names;\r\n\t\telectors[addresses].voted = false;\r\n\t\telectors[addresses].province = provinces;\r\n\t\telectors[addresses].city = cities;\r\n\t\telectors[addresses].region = regions;\r\n\t\telectors[addresses].voteCount = 0;\r\n\t\telectors[addresses].power = 0;\r\n\t\tfindPerson[names] = addresses;\r\n\t\tif(maxRegionNum < regions){\r\n\t\t\tmaxRegionNum = regions;\r\n\t\t}\r\n\t\tif(maxCityNum < cities){\r\n\t\t\tmaxCityNum = cities;\r\n\t\t}\r\n\t\tif(maxProvinceNum < provinces){\r\n\t\t\tmaxProvinceNum = provinces;\r\n\t\t}\r\n\t\tvalidAddr.push(addresses);\r\n\t}\r\n\r\n\tfunction voteTo(bytes32 toVoteName) public {\r\n\t\telector storage sender = electors[msg.sender];\r\n\t\trequire(!sender.voted, \"this elector already voted.\");\r\n\t\trequire(sender.power >= currentState,\"this elector do not have enough power\");\r\n\t\telector storage toVote = electors[findPerson[toVoteName]];\r\n\t\tif(currentState == 0){\r\n\t\t\trequire(sender.region == toVote.region,\"elector and to vote person must be in the same region\");\t\r\n\t\t}\r\n\t\telse if(currentState == 1){\r\n\t\t\trequire(sender.city == toVote.city,\"elector and to vote person must be in the same city\");\r\n\t\t}\r\n\t\telse if(currentState == 2){\r\n\t\t\trequire(sender.province == toVote.province,\"elector and to vote person must be in the same province\");\r\n\t\t}\r\n\t\tsender.voted = true;\r\n\t\ttoVote.voteCount++;\r\n\t}\r\n\r\n\tfunction finishState() public {\r\n\t\trequire (msg.sender == chairperson, \"only chairperson can finish state\");\r\n\t\tif(currentState == 0){\r\n\t\t\tuint[] regionMaxCount;\r\n\t\t\taddress[] regionElected;\r\n\t\t\tregionMaxCount.length = maxRegionNum;\r\n\t\t\tregionElected.length = maxRegionNum;\r\n\t\t\tfor(uint i = 0; i < maxRegionNum; i++){\r\n\t\t\t\tregionMaxCount[i] = 0;\r\n\t\t\t}\r\n\t\t\tfor(i = 0; i < validAddr.length; i++){\r\n\t\t\t\telector storage tmp0 = electors[validAddr[i]]; \r\n\t\t\t\tif(tmp0.power >= 0 && tmp0.voteCount > regionMaxCount[tmp0.region - 1]){\r\n\t\t\t\t\tregionMaxCount[tmp0.region - 1] = tmp0.voteCount;\r\n\t\t\t\t\tregionElected[tmp0.region - 1] = validAddr[i];\r\n\t\t\t\t}                     \r\n\t\t\t}\r\n\t\t\tfor(i = 0; i < regionElected.length; i++){\r\n\t\t\t\telectors[regionElected[i]].power = 1;\t\t\t\t\r\n\t\t\t}\r\n\t\t\tcurrentState = 1;\r\n\t\t}\r\n\t\telse if(currentState == 1){\r\n\t\t\tuint[] cityMaxCount;\r\n\t\t\taddress[] cityElected;\r\n\t\t\tcityMaxCount.length = maxCityNum;\r\n\t\t\tcityElected.length = maxCityNum;\r\n\t\t\tfor(i = 0; i < maxCityNum; i++){\r\n\t\t\t\tcityMaxCount[i] = 0;\r\n\t\t\t}\r\n\t\t\tfor(i = 0; i < validAddr.length; i++){\r\n\t\t\t\telector storage tmp1 = electors[validAddr[i]]; \r\n\t\t\t\tif(tmp1.power >= 1 && tmp1.voteCount > cityMaxCount[tmp1.city - 1]){\r\n\t\t\t\t\tcityMaxCount[tmp1.city - 1] = tmp1.voteCount;\r\n\t\t\t\t\tcityElected[tmp1.city - 1] = validAddr[i];\r\n\t\t\t\t}                     \r\n\t\t\t}\r\n\t\t\tfor(i = 0; i < cityElected.length; i++){\r\n\t\t\t\telectors[cityElected[i]].power = 2;\t\t\t\r\n\t\t\t}\r\n\t\t\tcurrentState = 2;\r\n\t\t}\r\n\t\telse if(currentState == 2){\r\n\t\t\tuint[] provinceMaxCount;\r\n\t\t\taddress[] provinceElected;\r\n\t\t\tprovinceMaxCount.length = maxProvinceNum;\r\n\t\t\tprovinceElected.length = maxProvinceNum;\r\n\t\t\tfor(i = 0; i < maxProvinceNum; i++){\r\n\t\t\t\tprovinceMaxCount[i] = 0;\r\n\t\t\t}\r\n\t\t\tfor(i = 0; i < validAddr.length; i++){\r\n\t\t\t\telector storage tmp2 = electors[validAddr[i]]; \r\n\t\t\t\tif(tmp2.power >= 2 && tmp2.voteCount > provinceMaxCount[tmp2.province - 1]){\r\n\t\t\t\t\tprovinceMaxCount[tmp2.province - 1] = tmp2.voteCount;\r\n\t\t\t\t\tprovinceElected[tmp2.province - 1] = validAddr[i];\r\n\t\t\t\t}                     \r\n\t\t\t}\r\n\t\t\tfor(i = 0; i < provinceElected.length; i++){\r\n\t\t\t\telectors[provinceElected[i]].power = 3;\t\t\t\r\n\t\t\t}\r\n\t\t\tcurrentState = 3;\r\n\t\t}\r\n\t\telse if(currentState == 3){\r\n\t\t\tuint countryMaxCount;\r\n\t\t\taddress countryElected;\r\n\t\t\tfor(i = 0; i < validAddr.length; i++){\r\n\t\t\t\telector storage tmp3 = electors[validAddr[i]]; \r\n\t\t\t\tif(tmp3.power >= 3 && tmp3.voteCount > countryMaxCount){\r\n\t\t\t\t\tcountryMaxCount = tmp3.voteCount;\r\n\t\t\t\t\tcountryElected = validAddr[i];\r\n\t\t\t\t}                     \r\n\t\t\t}\r\n\t\t\telectors[countryElected].power = 4;\r\n\t\t\tcurrentState = 4;\r\n\t\t}\r\n\t\tfor(i = 0; i < validAddr.length; i++){\r\n\t\t\telectors[validAddr[i]].voteCount = 0;\r\n\t\t\telectors[validAddr[i]].voted = false;\r\n\t\t}\r\n\t}\r\n}\r\n",
  "sourcePath": "C:/Users/lhw/Desktop/finalproject/contracts/election.sol",
  "compiler": {
    "name": "solc",
    "version": "0.4.24+commit.e67f0147.Emscripten.clang"
  },
  "schemaVersion": "3.0.0",
  "updatedAt": "2018-12-26T08:30:47.718Z",
  "devdoc": {
    "methods": {}
  },
  "userdoc": {
    "methods": {}
  }
}